{
  "contractName": "Value",
  "abi": [
    {
      "constant": false,
      "inputs": [
        {
          "internalType": "string",
          "name": "_key",
          "type": "string"
        },
        {
          "internalType": "uint256",
          "name": "_stamp",
          "type": "uint256"
        },
        {
          "internalType": "uint256",
          "name": "_val",
          "type": "uint256"
        }
      ],
      "name": "setPrice",
      "outputs": [],
      "payable": false,
      "stateMutability": "nonpayable",
      "type": "function"
    },
    {
      "constant": true,
      "inputs": [
        {
          "internalType": "string",
          "name": "_key",
          "type": "string"
        }
      ],
      "name": "getPrice",
      "outputs": [
        {
          "internalType": "uint256",
          "name": "",
          "type": "uint256"
        }
      ],
      "payable": false,
      "stateMutability": "view",
      "type": "function"
    }
  ],
  "bytecode": "0x608060405234801561001057600080fd5b506102c7806100206000396000f3fe608060405234801561001057600080fd5b50600436106100365760003560e01c80631d74e6781461003b578063524f3889146100c8575b600080fd5b6100c66004803603606081101561005157600080fd5b810190808035906020019064010000000081111561006e57600080fd5b82018360208201111561008057600080fd5b803590602001918460018302840111640100000000831117156100a257600080fd5b90919293919293908035906020019092919080359060200190929190505050610197565b005b610181600480360360208110156100de57600080fd5b81019080803590602001906401000000008111156100fb57600080fd5b82018360208201111561010d57600080fd5b8035906020019184600183028401116401000000008311171561012f57600080fd5b91908080601f016020809104026020016040519081016040528093929190818152602001838380828437600081840152601f19601f820116905080830192505050505050509192919290505050610213565b6040518082815260200191505060405180910390f35b816000858560405180838380828437808301925050509250505090815260200160405180910390206000600281106101cb57fe5b0154101561020d578060008585604051808383808284378083019250505092505050908152602001604051809103902060016002811061020757fe5b01819055505b50505050565b600080826040518082805190602001908083835b6020831061024a5780518252602082019150602081019050602083039250610227565b6001836020036101000a038019825116818451168082178552505050505050905001915050908152602001604051809103902060016002811061028957fe5b0154905091905056fea265627a7a72315820d32a95664dba658089a34014b46156aeec1d411bcfebf69656f15baf3218fefe64736f6c634300050c0032",
  "source": "pragma solidity ^0.5.12;\n\ncontract Value {\n\n\tmapping (string => uint[2]) internal prices; // key => price data [stamp, price]\n\n\tfunction setPrice(string calldata _key, uint _stamp, uint _val) external {\n\t\tif (prices[_key][0] < _stamp) prices[_key][1] = _val;\n\t}\n\n\tfunction getPrice(string memory _key) public view returns (uint) {\n\t\treturn prices[_key][1];\n\t}\n\n}\n",
  "sourcePath": "/home/arek/DAPPS/NodeWS/contracts/Value.sol",
  "compiler": {
    "name": "solc",
    "version": "0.5.12+commit.7709ece9.Emscripten.clang"
  },
  "schemaVersion": "3.0.19",
  "updatedAt": "2020-08-04T12:15:45.613Z",
  "networkType": "ethereum",
  "devdoc": {
    "methods": {}
  },
  "userdoc": {
    "methods": {}
  }
}